{
	"contract-8847ba4147.sol": {
		"MsgBlockchain": {
			"abi": [
				{
					"inputs": [],
					"stateMutability": "nonpayable",
					"type": "constructor"
				},
				{
					"inputs": [],
					"name": "conter",
					"outputs": [
						{
							"internalType": "uint256",
							"name": "",
							"type": "uint256"
						}
					],
					"stateMutability": "view",
					"type": "function"
				},
				{
					"inputs": [],
					"name": "message",
					"outputs": [
						{
							"internalType": "string",
							"name": "",
							"type": "string"
						}
					],
					"stateMutability": "view",
					"type": "function"
				},
				{
					"inputs": [],
					"name": "owner",
					"outputs": [
						{
							"internalType": "address",
							"name": "",
							"type": "address"
						}
					],
					"stateMutability": "view",
					"type": "function"
				},
				{
					"inputs": [],
					"name": "recipt",
					"outputs": [
						{
							"internalType": "address",
							"name": "",
							"type": "address"
						}
					],
					"stateMutability": "view",
					"type": "function"
				},
				{
					"inputs": [
						{
							"internalType": "string",
							"name": "_newMessage",
							"type": "string"
						}
					],
					"name": "updMessage",
					"outputs": [],
					"stateMutability": "nonpayable",
					"type": "function"
				}
			],
			"devdoc": {
				"kind": "dev",
				"methods": {},
				"version": 1
			},
			"evm": {
				"assembly": "    /* \"contract-8847ba4147.sol\":63:930  contract MsgBlockchain {... */\n  mstore(0x40, 0x80)\n    /* \"contract-8847ba4147.sol\":197:246  constructor() {... */\n  callvalue\n  dup1\n  iszero\n  tag_1\n  jumpi\n  0x00\n  dup1\n  revert\ntag_1:\n  pop\n    /* \"contract-8847ba4147.sol\":229:239  msg.sender */\n  caller\n    /* \"contract-8847ba4147.sol\":221:226  owner */\n  0x01\n  0x00\n    /* \"contract-8847ba4147.sol\":221:239  owner = msg.sender */\n  0x0100\n  exp\n  dup2\n  sload\n  dup2\n  0xffffffffffffffffffffffffffffffffffffffff\n  mul\n  not\n  and\n  swap1\n  dup4\n  0xffffffffffffffffffffffffffffffffffffffff\n  and\n  mul\n  or\n  swap1\n  sstore\n  pop\n    /* \"contract-8847ba4147.sol\":63:930  contract MsgBlockchain {... */\n  dataSize(sub_0)\n  dup1\n  dataOffset(sub_0)\n  0x00\n  codecopy\n  0x00\n  return\nstop\n\nsub_0: assembly {\n        /* \"contract-8847ba4147.sol\":63:930  contract MsgBlockchain {... */\n      mstore(0x40, 0x80)\n      callvalue\n      dup1\n      iszero\n      tag_1\n      jumpi\n      0x00\n      dup1\n      revert\n    tag_1:\n      pop\n      jumpi(tag_2, lt(calldatasize, 0x04))\n      shr(0xe0, calldataload(0x00))\n      dup1\n      0x0bb8c40f\n      eq\n      tag_3\n      jumpi\n      dup1\n      0x163f4152\n      eq\n      tag_4\n      jumpi\n      dup1\n      0x84991e08\n      eq\n      tag_5\n      jumpi\n      dup1\n      0x8da5cb5b\n      eq\n      tag_6\n      jumpi\n      dup1\n      0xe21f37ce\n      eq\n      tag_7\n      jumpi\n    tag_2:\n      0x00\n      dup1\n      revert\n        /* \"contract-8847ba4147.sol\":142:163  address public recipt */\n    tag_3:\n      tag_8\n      tag_9\n      jump\t// in\n    tag_8:\n      mload(0x40)\n      tag_10\n      swap2\n      swap1\n      tag_11\n      jump\t// in\n    tag_10:\n      mload(0x40)\n      dup1\n      swap2\n      sub\n      swap1\n      return\n        /* \"contract-8847ba4147.sol\":252:928  function updMessage(string memory _newMessage) public {... */\n    tag_4:\n      tag_12\n      0x04\n      dup1\n      calldatasize\n      sub\n      dup2\n      add\n      swap1\n      tag_13\n      swap2\n      swap1\n      tag_14\n      jump\t// in\n    tag_13:\n      tag_15\n      jump\t// in\n    tag_12:\n      stop\n        /* \"contract-8847ba4147.sol\":92:110  uint public conter */\n    tag_5:\n      tag_16\n      tag_17\n      jump\t// in\n    tag_16:\n      mload(0x40)\n      tag_18\n      swap2\n      swap1\n      tag_19\n      jump\t// in\n    tag_18:\n      mload(0x40)\n      dup1\n      swap2\n      sub\n      swap1\n      return\n        /* \"contract-8847ba4147.sol\":116:136  address public owner */\n    tag_6:\n      tag_20\n      tag_21\n      jump\t// in\n    tag_20:\n      mload(0x40)\n      tag_22\n      swap2\n      swap1\n      tag_11\n      jump\t// in\n    tag_22:\n      mload(0x40)\n      dup1\n      swap2\n      sub\n      swap1\n      return\n        /* \"contract-8847ba4147.sol\":169:190  string public message */\n    tag_7:\n      tag_23\n      tag_24\n      jump\t// in\n    tag_23:\n      mload(0x40)\n      tag_25\n      swap2\n      swap1\n      tag_26\n      jump\t// in\n    tag_25:\n      mload(0x40)\n      dup1\n      swap2\n      sub\n      swap1\n      return\n        /* \"contract-8847ba4147.sol\":142:163  address public recipt */\n    tag_9:\n      0x02\n      0x00\n      swap1\n      sload\n      swap1\n      0x0100\n      exp\n      swap1\n      div\n      0xffffffffffffffffffffffffffffffffffffffff\n      and\n      dup2\n      jump\t// out\n        /* \"contract-8847ba4147.sol\":252:928  function updMessage(string memory _newMessage) public {... */\n    tag_15:\n        /* \"contract-8847ba4147.sol\":334:339  owner */\n      0x01\n      0x00\n      swap1\n      sload\n      swap1\n      0x0100\n      exp\n      swap1\n      div\n      0xffffffffffffffffffffffffffffffffffffffff\n      and\n        /* \"contract-8847ba4147.sol\":320:339  msg.sender == owner */\n      0xffffffffffffffffffffffffffffffffffffffff\n      and\n        /* \"contract-8847ba4147.sol\":320:330  msg.sender */\n      caller\n        /* \"contract-8847ba4147.sol\":320:339  msg.sender == owner */\n      0xffffffffffffffffffffffffffffffffffffffff\n      and\n      eq\n        /* \"contract-8847ba4147.sol\":316:922  if (msg.sender == owner) {... */\n      iszero\n      tag_28\n      jumpi\n        /* \"contract-8847ba4147.sol\":420:431  _newMessage */\n      dup1\n        /* \"contract-8847ba4147.sol\":410:417  message */\n      0x03\n        /* \"contract-8847ba4147.sol\":410:431  message = _newMessage */\n      swap1\n      dup1\n      mload\n      swap1\n      0x20\n      add\n      swap1\n      tag_29\n      swap3\n      swap2\n      swap1\n      tag_30\n      jump\t// in\n    tag_29:\n      pop\n        /* \"contract-8847ba4147.sol\":445:451  conter */\n      0x00\n      dup1\n        /* \"contract-8847ba4147.sol\":445:453  conter++ */\n      dup2\n      sload\n      dup1\n      swap3\n      swap2\n      swap1\n      tag_31\n      swap1\n      tag_32\n      jump\t// in\n    tag_31:\n      swap2\n      swap1\n      pop\n      sstore\n      pop\n        /* \"contract-8847ba4147.sol\":484:485  0 */\n      0x00\n        /* \"contract-8847ba4147.sol\":467:473  recipt */\n      0x02\n      0x00\n        /* \"contract-8847ba4147.sol\":467:486  recipt = address(0) */\n      0x0100\n      exp\n      dup2\n      sload\n      dup2\n      0xffffffffffffffffffffffffffffffffffffffff\n      mul\n      not\n      and\n      swap1\n      dup4\n      0xffffffffffffffffffffffffffffffffffffffff\n      and\n      mul\n      or\n      swap1\n      sstore\n      pop\n        /* \"contract-8847ba4147.sol\":316:922  if (msg.sender == owner) {... */\n      jump(tag_33)\n    tag_28:\n        /* \"contract-8847ba4147.sol\":663:664  0 */\n      0x00\n        /* \"contract-8847ba4147.sol\":645:652  message */\n      0x03\n        /* \"contract-8847ba4147.sol\":639:660  bytes(message).length */\n      dup1\n      sload\n      tag_34\n      swap1\n      tag_35\n      jump\t// in\n    tag_34:\n      swap1\n      pop\n        /* \"contract-8847ba4147.sol\":639:664  bytes(message).length > 0 */\n      gt\n        /* \"contract-8847ba4147.sol\":631:692  require(bytes(message).length > 0, \"No message to reply to.\") */\n      tag_36\n      jumpi\n      mload(0x40)\n      0x08c379a000000000000000000000000000000000000000000000000000000000\n      dup2\n      mstore\n      0x04\n      add\n      tag_37\n      swap1\n      tag_38\n      jump\t// in\n    tag_37:\n      mload(0x40)\n      dup1\n      swap2\n      sub\n      swap1\n      revert\n    tag_36:\n        /* \"contract-8847ba4147.sol\":732:733  0 */\n      0x00\n        /* \"contract-8847ba4147.sol\":714:734  recipt == address(0) */\n      0xffffffffffffffffffffffffffffffffffffffff\n      and\n        /* \"contract-8847ba4147.sol\":714:720  recipt */\n      0x02\n      0x00\n      swap1\n      sload\n      swap1\n      0x0100\n      exp\n      swap1\n      div\n      0xffffffffffffffffffffffffffffffffffffffff\n      and\n        /* \"contract-8847ba4147.sol\":714:734  recipt == address(0) */\n      0xffffffffffffffffffffffffffffffffffffffff\n      and\n      eq\n        /* \"contract-8847ba4147.sol\":706:775  require(recipt == address(0), \"Message has already been replied to.\") */\n      tag_39\n      jumpi\n      mload(0x40)\n      0x08c379a000000000000000000000000000000000000000000000000000000000\n      dup2\n      mstore\n      0x04\n      add\n      tag_40\n      swap1\n      tag_41\n      jump\t// in\n    tag_40:\n      mload(0x40)\n      dup1\n      swap2\n      sub\n      swap1\n      revert\n    tag_39:\n        /* \"contract-8847ba4147.sol\":798:808  msg.sender */\n      caller\n        /* \"contract-8847ba4147.sol\":789:795  recipt */\n      0x02\n      0x00\n        /* \"contract-8847ba4147.sol\":789:808  recipt = msg.sender */\n      0x0100\n      exp\n      dup2\n      sload\n      dup2\n      0xffffffffffffffffffffffffffffffffffffffff\n      mul\n      not\n      and\n      swap1\n      dup4\n      0xffffffffffffffffffffffffffffffffffffffff\n      and\n      mul\n      or\n      swap1\n      sstore\n      pop\n        /* \"contract-8847ba4147.sol\":878:889  _newMessage */\n      dup1\n        /* \"contract-8847ba4147.sol\":868:875  message */\n      0x03\n        /* \"contract-8847ba4147.sol\":868:889  message = _newMessage */\n      swap1\n      dup1\n      mload\n      swap1\n      0x20\n      add\n      swap1\n      tag_42\n      swap3\n      swap2\n      swap1\n      tag_30\n      jump\t// in\n    tag_42:\n      pop\n        /* \"contract-8847ba4147.sol\":903:909  conter */\n      0x00\n      dup1\n        /* \"contract-8847ba4147.sol\":903:911  conter++ */\n      dup2\n      sload\n      dup1\n      swap3\n      swap2\n      swap1\n      tag_43\n      swap1\n      tag_32\n      jump\t// in\n    tag_43:\n      swap2\n      swap1\n      pop\n      sstore\n      pop\n        /* \"contract-8847ba4147.sol\":316:922  if (msg.sender == owner) {... */\n    tag_33:\n        /* \"contract-8847ba4147.sol\":252:928  function updMessage(string memory _newMessage) public {... */\n      pop\n      jump\t// out\n        /* \"contract-8847ba4147.sol\":92:110  uint public conter */\n    tag_17:\n      sload(0x00)\n      dup2\n      jump\t// out\n        /* \"contract-8847ba4147.sol\":116:136  address public owner */\n    tag_21:\n      0x01\n      0x00\n      swap1\n      sload\n      swap1\n      0x0100\n      exp\n      swap1\n      div\n      0xffffffffffffffffffffffffffffffffffffffff\n      and\n      dup2\n      jump\t// out\n        /* \"contract-8847ba4147.sol\":169:190  string public message */\n    tag_24:\n      0x03\n      dup1\n      sload\n      tag_44\n      swap1\n      tag_35\n      jump\t// in\n    tag_44:\n      dup1\n      0x1f\n      add\n      0x20\n      dup1\n      swap2\n      div\n      mul\n      0x20\n      add\n      mload(0x40)\n      swap1\n      dup2\n      add\n      0x40\n      mstore\n      dup1\n      swap3\n      swap2\n      swap1\n      dup2\n      dup2\n      mstore\n      0x20\n      add\n      dup3\n      dup1\n      sload\n      tag_45\n      swap1\n      tag_35\n      jump\t// in\n    tag_45:\n      dup1\n      iszero\n      tag_46\n      jumpi\n      dup1\n      0x1f\n      lt\n      tag_47\n      jumpi\n      0x0100\n      dup1\n      dup4\n      sload\n      div\n      mul\n      dup4\n      mstore\n      swap2\n      0x20\n      add\n      swap2\n      jump(tag_46)\n    tag_47:\n      dup3\n      add\n      swap2\n      swap1\n      0x00\n      mstore\n      keccak256(0x00, 0x20)\n      swap1\n    tag_48:\n      dup2\n      sload\n      dup2\n      mstore\n      swap1\n      0x01\n      add\n      swap1\n      0x20\n      add\n      dup1\n      dup4\n      gt\n      tag_48\n      jumpi\n      dup3\n      swap1\n      sub\n      0x1f\n      and\n      dup3\n      add\n      swap2\n    tag_46:\n      pop\n      pop\n      pop\n      pop\n      pop\n      dup2\n      jump\t// out\n    tag_30:\n      dup3\n      dup1\n      sload\n      tag_49\n      swap1\n      tag_35\n      jump\t// in\n    tag_49:\n      swap1\n      0x00\n      mstore\n      keccak256(0x00, 0x20)\n      swap1\n      0x1f\n      add\n      0x20\n      swap1\n      div\n      dup2\n      add\n      swap3\n      dup3\n      tag_51\n      jumpi\n      0x00\n      dup6\n      sstore\n      jump(tag_50)\n    tag_51:\n      dup3\n      0x1f\n      lt\n      tag_52\n      jumpi\n      dup1\n      mload\n      not(0xff)\n      and\n      dup4\n      dup1\n      add\n      or\n      dup6\n      sstore\n      jump(tag_50)\n    tag_52:\n      dup3\n      dup1\n      add\n      0x01\n      add\n      dup6\n      sstore\n      dup3\n      iszero\n      tag_50\n      jumpi\n      swap2\n      dup3\n      add\n    tag_53:\n      dup3\n      dup2\n      gt\n      iszero\n      tag_54\n      jumpi\n      dup3\n      mload\n      dup3\n      sstore\n      swap2\n      0x20\n      add\n      swap2\n      swap1\n      0x01\n      add\n      swap1\n      jump(tag_53)\n    tag_54:\n    tag_50:\n      pop\n      swap1\n      pop\n      tag_55\n      swap2\n      swap1\n      tag_56\n      jump\t// in\n    tag_55:\n      pop\n      swap1\n      jump\t// out\n    tag_56:\n    tag_57:\n      dup1\n      dup3\n      gt\n      iszero\n      tag_58\n      jumpi\n      0x00\n      dup2\n      0x00\n      swap1\n      sstore\n      pop\n      0x01\n      add\n      jump(tag_57)\n    tag_58:\n      pop\n      swap1\n      jump\t// out\n        /* \"#utility.yul\":7:351   */\n    tag_60:\n      0x00\n        /* \"#utility.yul\":110:175   */\n      tag_62\n        /* \"#utility.yul\":125:174   */\n      tag_63\n        /* \"#utility.yul\":167:173   */\n      dup5\n        /* \"#utility.yul\":125:174   */\n      tag_64\n      jump\t// in\n    tag_63:\n        /* \"#utility.yul\":110:175   */\n      tag_65\n      jump\t// in\n    tag_62:\n        /* \"#utility.yul\":101:175   */\n      swap1\n      pop\n        /* \"#utility.yul\":198:204   */\n      dup3\n        /* \"#utility.yul\":191:196   */\n      dup2\n        /* \"#utility.yul\":184:205   */\n      mstore\n        /* \"#utility.yul\":236:240   */\n      0x20\n        /* \"#utility.yul\":229:234   */\n      dup2\n        /* \"#utility.yul\":225:241   */\n      add\n        /* \"#utility.yul\":274:277   */\n      dup5\n        /* \"#utility.yul\":265:271   */\n      dup5\n        /* \"#utility.yul\":260:263   */\n      dup5\n        /* \"#utility.yul\":256:272   */\n      add\n        /* \"#utility.yul\":253:278   */\n      gt\n        /* \"#utility.yul\":250:252   */\n      iszero\n      tag_66\n      jumpi\n        /* \"#utility.yul\":291:292   */\n      0x00\n        /* \"#utility.yul\":288:289   */\n      dup1\n        /* \"#utility.yul\":281:293   */\n      revert\n        /* \"#utility.yul\":250:252   */\n    tag_66:\n        /* \"#utility.yul\":304:345   */\n      tag_67\n        /* \"#utility.yul\":338:344   */\n      dup5\n        /* \"#utility.yul\":333:336   */\n      dup3\n        /* \"#utility.yul\":328:331   */\n      dup6\n        /* \"#utility.yul\":304:345   */\n      tag_68\n      jump\t// in\n    tag_67:\n        /* \"#utility.yul\":91:351   */\n      pop\n      swap4\n      swap3\n      pop\n      pop\n      pop\n      jump\t// out\n        /* \"#utility.yul\":371:644   */\n    tag_69:\n      0x00\n        /* \"#utility.yul\":476:479   */\n      dup3\n        /* \"#utility.yul\":469:473   */\n      0x1f\n        /* \"#utility.yul\":461:467   */\n      dup4\n        /* \"#utility.yul\":457:474   */\n      add\n        /* \"#utility.yul\":453:480   */\n      slt\n        /* \"#utility.yul\":443:445   */\n      tag_71\n      jumpi\n        /* \"#utility.yul\":494:495   */\n      0x00\n        /* \"#utility.yul\":491:492   */\n      dup1\n        /* \"#utility.yul\":484:496   */\n      revert\n        /* \"#utility.yul\":443:445   */\n    tag_71:\n        /* \"#utility.yul\":534:540   */\n      dup2\n        /* \"#utility.yul\":521:541   */\n      calldataload\n        /* \"#utility.yul\":559:638   */\n      tag_72\n        /* \"#utility.yul\":634:637   */\n      dup5\n        /* \"#utility.yul\":626:632   */\n      dup3\n        /* \"#utility.yul\":619:623   */\n      0x20\n        /* \"#utility.yul\":611:617   */\n      dup7\n        /* \"#utility.yul\":607:624   */\n      add\n        /* \"#utility.yul\":559:638   */\n      tag_60\n      jump\t// in\n    tag_72:\n        /* \"#utility.yul\":550:638   */\n      swap2\n      pop\n        /* \"#utility.yul\":433:644   */\n      pop\n      swap3\n      swap2\n      pop\n      pop\n      jump\t// out\n        /* \"#utility.yul\":650:1025   */\n    tag_14:\n      0x00\n        /* \"#utility.yul\":768:770   */\n      0x20\n        /* \"#utility.yul\":756:765   */\n      dup3\n        /* \"#utility.yul\":747:754   */\n      dup5\n        /* \"#utility.yul\":743:766   */\n      sub\n        /* \"#utility.yul\":739:771   */\n      slt\n        /* \"#utility.yul\":736:738   */\n      iszero\n      tag_74\n      jumpi\n        /* \"#utility.yul\":784:785   */\n      0x00\n        /* \"#utility.yul\":781:782   */\n      dup1\n        /* \"#utility.yul\":774:786   */\n      revert\n        /* \"#utility.yul\":736:738   */\n    tag_74:\n        /* \"#utility.yul\":855:856   */\n      0x00\n        /* \"#utility.yul\":844:853   */\n      dup3\n        /* \"#utility.yul\":840:857   */\n      add\n        /* \"#utility.yul\":827:858   */\n      calldataload\n        /* \"#utility.yul\":885:903   */\n      0xffffffffffffffff\n        /* \"#utility.yul\":877:883   */\n      dup2\n        /* \"#utility.yul\":874:904   */\n      gt\n        /* \"#utility.yul\":871:873   */\n      iszero\n      tag_75\n      jumpi\n        /* \"#utility.yul\":917:918   */\n      0x00\n        /* \"#utility.yul\":914:915   */\n      dup1\n        /* \"#utility.yul\":907:919   */\n      revert\n        /* \"#utility.yul\":871:873   */\n    tag_75:\n        /* \"#utility.yul\":945:1008   */\n      tag_76\n        /* \"#utility.yul\":1000:1007   */\n      dup5\n        /* \"#utility.yul\":991:997   */\n      dup3\n        /* \"#utility.yul\":980:989   */\n      dup6\n        /* \"#utility.yul\":976:998   */\n      add\n        /* \"#utility.yul\":945:1008   */\n      tag_69\n      jump\t// in\n    tag_76:\n        /* \"#utility.yul\":935:1008   */\n      swap2\n      pop\n        /* \"#utility.yul\":798:1018   */\n      pop\n        /* \"#utility.yul\":726:1025   */\n      swap3\n      swap2\n      pop\n      pop\n      jump\t// out\n        /* \"#utility.yul\":1031:1149   */\n    tag_77:\n        /* \"#utility.yul\":1118:1142   */\n      tag_79\n        /* \"#utility.yul\":1136:1141   */\n      dup2\n        /* \"#utility.yul\":1118:1142   */\n      tag_80\n      jump\t// in\n    tag_79:\n        /* \"#utility.yul\":1113:1116   */\n      dup3\n        /* \"#utility.yul\":1106:1143   */\n      mstore\n        /* \"#utility.yul\":1096:1149   */\n      pop\n      pop\n      jump\t// out\n        /* \"#utility.yul\":1155:1519   */\n    tag_81:\n      0x00\n        /* \"#utility.yul\":1271:1310   */\n      tag_83\n        /* \"#utility.yul\":1304:1309   */\n      dup3\n        /* \"#utility.yul\":1271:1310   */\n      tag_84\n      jump\t// in\n    tag_83:\n        /* \"#utility.yul\":1326:1397   */\n      tag_85\n        /* \"#utility.yul\":1390:1396   */\n      dup2\n        /* \"#utility.yul\":1385:1388   */\n      dup6\n        /* \"#utility.yul\":1326:1397   */\n      tag_86\n      jump\t// in\n    tag_85:\n        /* \"#utility.yul\":1319:1397   */\n      swap4\n      pop\n        /* \"#utility.yul\":1406:1458   */\n      tag_87\n        /* \"#utility.yul\":1451:1457   */\n      dup2\n        /* \"#utility.yul\":1446:1449   */\n      dup6\n        /* \"#utility.yul\":1439:1443   */\n      0x20\n        /* \"#utility.yul\":1432:1437   */\n      dup7\n        /* \"#utility.yul\":1428:1444   */\n      add\n        /* \"#utility.yul\":1406:1458   */\n      tag_88\n      jump\t// in\n    tag_87:\n        /* \"#utility.yul\":1483:1512   */\n      tag_89\n        /* \"#utility.yul\":1505:1511   */\n      dup2\n        /* \"#utility.yul\":1483:1512   */\n      tag_90\n      jump\t// in\n    tag_89:\n        /* \"#utility.yul\":1478:1481   */\n      dup5\n        /* \"#utility.yul\":1474:1513   */\n      add\n        /* \"#utility.yul\":1467:1513   */\n      swap2\n      pop\n        /* \"#utility.yul\":1247:1519   */\n      pop\n      swap3\n      swap2\n      pop\n      pop\n      jump\t// out\n        /* \"#utility.yul\":1525:1893   */\n    tag_91:\n      0x00\n        /* \"#utility.yul\":1688:1755   */\n      tag_93\n        /* \"#utility.yul\":1752:1754   */\n      0x24\n        /* \"#utility.yul\":1747:1750   */\n      dup4\n        /* \"#utility.yul\":1688:1755   */\n      tag_86\n      jump\t// in\n    tag_93:\n        /* \"#utility.yul\":1681:1755   */\n      swap2\n      pop\n        /* \"#utility.yul\":1785:1819   */\n      0x4d6573736167652068617320616c7265616479206265656e207265706c696564\n        /* \"#utility.yul\":1781:1782   */\n      0x00\n        /* \"#utility.yul\":1776:1779   */\n      dup4\n        /* \"#utility.yul\":1772:1783   */\n      add\n        /* \"#utility.yul\":1765:1820   */\n      mstore\n        /* \"#utility.yul\":1851:1857   */\n      0x20746f2e00000000000000000000000000000000000000000000000000000000\n        /* \"#utility.yul\":1846:1848   */\n      0x20\n        /* \"#utility.yul\":1841:1844   */\n      dup4\n        /* \"#utility.yul\":1837:1849   */\n      add\n        /* \"#utility.yul\":1830:1858   */\n      mstore\n        /* \"#utility.yul\":1884:1886   */\n      0x40\n        /* \"#utility.yul\":1879:1882   */\n      dup3\n        /* \"#utility.yul\":1875:1887   */\n      add\n        /* \"#utility.yul\":1868:1887   */\n      swap1\n      pop\n        /* \"#utility.yul\":1671:1893   */\n      swap2\n      swap1\n      pop\n      jump\t// out\n        /* \"#utility.yul\":1899:2220   */\n    tag_94:\n      0x00\n        /* \"#utility.yul\":2062:2129   */\n      tag_96\n        /* \"#utility.yul\":2126:2128   */\n      0x17\n        /* \"#utility.yul\":2121:2124   */\n      dup4\n        /* \"#utility.yul\":2062:2129   */\n      tag_86\n      jump\t// in\n    tag_96:\n        /* \"#utility.yul\":2055:2129   */\n      swap2\n      pop\n        /* \"#utility.yul\":2159:2184   */\n      0x4e6f206d65737361676520746f207265706c7920746f2e000000000000000000\n        /* \"#utility.yul\":2155:2156   */\n      0x00\n        /* \"#utility.yul\":2150:2153   */\n      dup4\n        /* \"#utility.yul\":2146:2157   */\n      add\n        /* \"#utility.yul\":2139:2185   */\n      mstore\n        /* \"#utility.yul\":2211:2213   */\n      0x20\n        /* \"#utility.yul\":2206:2209   */\n      dup3\n        /* \"#utility.yul\":2202:2214   */\n      add\n        /* \"#utility.yul\":2195:2214   */\n      swap1\n      pop\n        /* \"#utility.yul\":2045:2220   */\n      swap2\n      swap1\n      pop\n      jump\t// out\n        /* \"#utility.yul\":2226:2344   */\n    tag_97:\n        /* \"#utility.yul\":2313:2337   */\n      tag_99\n        /* \"#utility.yul\":2331:2336   */\n      dup2\n        /* \"#utility.yul\":2313:2337   */\n      tag_100\n      jump\t// in\n    tag_99:\n        /* \"#utility.yul\":2308:2311   */\n      dup3\n        /* \"#utility.yul\":2301:2338   */\n      mstore\n        /* \"#utility.yul\":2291:2344   */\n      pop\n      pop\n      jump\t// out\n        /* \"#utility.yul\":2350:2572   */\n    tag_11:\n      0x00\n        /* \"#utility.yul\":2481:2483   */\n      0x20\n        /* \"#utility.yul\":2470:2479   */\n      dup3\n        /* \"#utility.yul\":2466:2484   */\n      add\n        /* \"#utility.yul\":2458:2484   */\n      swap1\n      pop\n        /* \"#utility.yul\":2494:2565   */\n      tag_102\n        /* \"#utility.yul\":2562:2563   */\n      0x00\n        /* \"#utility.yul\":2551:2560   */\n      dup4\n        /* \"#utility.yul\":2547:2564   */\n      add\n        /* \"#utility.yul\":2538:2544   */\n      dup5\n        /* \"#utility.yul\":2494:2565   */\n      tag_77\n      jump\t// in\n    tag_102:\n        /* \"#utility.yul\":2448:2572   */\n      swap3\n      swap2\n      pop\n      pop\n      jump\t// out\n        /* \"#utility.yul\":2578:2891   */\n    tag_26:\n      0x00\n        /* \"#utility.yul\":2729:2731   */\n      0x20\n        /* \"#utility.yul\":2718:2727   */\n      dup3\n        /* \"#utility.yul\":2714:2732   */\n      add\n        /* \"#utility.yul\":2706:2732   */\n      swap1\n      pop\n        /* \"#utility.yul\":2778:2787   */\n      dup2\n        /* \"#utility.yul\":2772:2776   */\n      dup2\n        /* \"#utility.yul\":2768:2788   */\n      sub\n        /* \"#utility.yul\":2764:2765   */\n      0x00\n        /* \"#utility.yul\":2753:2762   */\n      dup4\n        /* \"#utility.yul\":2749:2766   */\n      add\n        /* \"#utility.yul\":2742:2789   */\n      mstore\n        /* \"#utility.yul\":2806:2884   */\n      tag_104\n        /* \"#utility.yul\":2879:2883   */\n      dup2\n        /* \"#utility.yul\":2870:2876   */\n      dup5\n        /* \"#utility.yul\":2806:2884   */\n      tag_81\n      jump\t// in\n    tag_104:\n        /* \"#utility.yul\":2798:2884   */\n      swap1\n      pop\n        /* \"#utility.yul\":2696:2891   */\n      swap3\n      swap2\n      pop\n      pop\n      jump\t// out\n        /* \"#utility.yul\":2897:3316   */\n    tag_41:\n      0x00\n        /* \"#utility.yul\":3101:3103   */\n      0x20\n        /* \"#utility.yul\":3090:3099   */\n      dup3\n        /* \"#utility.yul\":3086:3104   */\n      add\n        /* \"#utility.yul\":3078:3104   */\n      swap1\n      pop\n        /* \"#utility.yul\":3150:3159   */\n      dup2\n        /* \"#utility.yul\":3144:3148   */\n      dup2\n        /* \"#utility.yul\":3140:3160   */\n      sub\n        /* \"#utility.yul\":3136:3137   */\n      0x00\n        /* \"#utility.yul\":3125:3134   */\n      dup4\n        /* \"#utility.yul\":3121:3138   */\n      add\n        /* \"#utility.yul\":3114:3161   */\n      mstore\n        /* \"#utility.yul\":3178:3309   */\n      tag_106\n        /* \"#utility.yul\":3304:3308   */\n      dup2\n        /* \"#utility.yul\":3178:3309   */\n      tag_91\n      jump\t// in\n    tag_106:\n        /* \"#utility.yul\":3170:3309   */\n      swap1\n      pop\n        /* \"#utility.yul\":3068:3316   */\n      swap2\n      swap1\n      pop\n      jump\t// out\n        /* \"#utility.yul\":3322:3741   */\n    tag_38:\n      0x00\n        /* \"#utility.yul\":3526:3528   */\n      0x20\n        /* \"#utility.yul\":3515:3524   */\n      dup3\n        /* \"#utility.yul\":3511:3529   */\n      add\n        /* \"#utility.yul\":3503:3529   */\n      swap1\n      pop\n        /* \"#utility.yul\":3575:3584   */\n      dup2\n        /* \"#utility.yul\":3569:3573   */\n      dup2\n        /* \"#utility.yul\":3565:3585   */\n      sub\n        /* \"#utility.yul\":3561:3562   */\n      0x00\n        /* \"#utility.yul\":3550:3559   */\n      dup4\n        /* \"#utility.yul\":3546:3563   */\n      add\n        /* \"#utility.yul\":3539:3586   */\n      mstore\n        /* \"#utility.yul\":3603:3734   */\n      tag_108\n        /* \"#utility.yul\":3729:3733   */\n      dup2\n        /* \"#utility.yul\":3603:3734   */\n      tag_94\n      jump\t// in\n    tag_108:\n        /* \"#utility.yul\":3595:3734   */\n      swap1\n      pop\n        /* \"#utility.yul\":3493:3741   */\n      swap2\n      swap1\n      pop\n      jump\t// out\n        /* \"#utility.yul\":3747:3969   */\n    tag_19:\n      0x00\n        /* \"#utility.yul\":3878:3880   */\n      0x20\n        /* \"#utility.yul\":3867:3876   */\n      dup3\n        /* \"#utility.yul\":3863:3881   */\n      add\n        /* \"#utility.yul\":3855:3881   */\n      swap1\n      pop\n        /* \"#utility.yul\":3891:3962   */\n      tag_110\n        /* \"#utility.yul\":3959:3960   */\n      0x00\n        /* \"#utility.yul\":3948:3957   */\n      dup4\n        /* \"#utility.yul\":3944:3961   */\n      add\n        /* \"#utility.yul\":3935:3941   */\n      dup5\n        /* \"#utility.yul\":3891:3962   */\n      tag_97\n      jump\t// in\n    tag_110:\n        /* \"#utility.yul\":3845:3969   */\n      swap3\n      swap2\n      pop\n      pop\n      jump\t// out\n        /* \"#utility.yul\":3975:4258   */\n    tag_65:\n      0x00\n        /* \"#utility.yul\":4041:4043   */\n      0x40\n        /* \"#utility.yul\":4035:4044   */\n      mload\n        /* \"#utility.yul\":4025:4044   */\n      swap1\n      pop\n        /* \"#utility.yul\":4083:4087   */\n      dup2\n        /* \"#utility.yul\":4075:4081   */\n      dup2\n        /* \"#utility.yul\":4071:4088   */\n      add\n        /* \"#utility.yul\":4190:4196   */\n      dup2\n        /* \"#utility.yul\":4178:4188   */\n      dup2\n        /* \"#utility.yul\":4175:4197   */\n      lt\n        /* \"#utility.yul\":4154:4172   */\n      0xffffffffffffffff\n        /* \"#utility.yul\":4142:4152   */\n      dup3\n        /* \"#utility.yul\":4139:4173   */\n      gt\n        /* \"#utility.yul\":4136:4198   */\n      or\n        /* \"#utility.yul\":4133:4135   */\n      iszero\n      tag_112\n      jumpi\n        /* \"#utility.yul\":4201:4219   */\n      tag_113\n      tag_114\n      jump\t// in\n    tag_113:\n        /* \"#utility.yul\":4133:4135   */\n    tag_112:\n        /* \"#utility.yul\":4241:4251   */\n      dup1\n        /* \"#utility.yul\":4237:4239   */\n      0x40\n        /* \"#utility.yul\":4230:4252   */\n      mstore\n        /* \"#utility.yul\":4015:4258   */\n      pop\n      swap2\n      swap1\n      pop\n      jump\t// out\n        /* \"#utility.yul\":4264:4596   */\n    tag_64:\n      0x00\n        /* \"#utility.yul\":4416:4434   */\n      0xffffffffffffffff\n        /* \"#utility.yul\":4408:4414   */\n      dup3\n        /* \"#utility.yul\":4405:4435   */\n      gt\n        /* \"#utility.yul\":4402:4404   */\n      iszero\n      tag_116\n      jumpi\n        /* \"#utility.yul\":4438:4456   */\n      tag_117\n      tag_114\n      jump\t// in\n    tag_117:\n        /* \"#utility.yul\":4402:4404   */\n    tag_116:\n        /* \"#utility.yul\":4523:4527   */\n      0x1f\n        /* \"#utility.yul\":4519:4528   */\n      not\n        /* \"#utility.yul\":4512:4516   */\n      0x1f\n        /* \"#utility.yul\":4504:4510   */\n      dup4\n        /* \"#utility.yul\":4500:4517   */\n      add\n        /* \"#utility.yul\":4496:4529   */\n      and\n        /* \"#utility.yul\":4488:4529   */\n      swap1\n      pop\n        /* \"#utility.yul\":4584:4588   */\n      0x20\n        /* \"#utility.yul\":4578:4582   */\n      dup2\n        /* \"#utility.yul\":4574:4589   */\n      add\n        /* \"#utility.yul\":4566:4589   */\n      swap1\n      pop\n        /* \"#utility.yul\":4331:4596   */\n      swap2\n      swap1\n      pop\n      jump\t// out\n        /* \"#utility.yul\":4602:4701   */\n    tag_84:\n      0x00\n        /* \"#utility.yul\":4688:4693   */\n      dup2\n        /* \"#utility.yul\":4682:4694   */\n      mload\n        /* \"#utility.yul\":4672:4694   */\n      swap1\n      pop\n        /* \"#utility.yul\":4661:4701   */\n      swap2\n      swap1\n      pop\n      jump\t// out\n        /* \"#utility.yul\":4707:4876   */\n    tag_86:\n      0x00\n        /* \"#utility.yul\":4825:4831   */\n      dup3\n        /* \"#utility.yul\":4820:4823   */\n      dup3\n        /* \"#utility.yul\":4813:4832   */\n      mstore\n        /* \"#utility.yul\":4865:4869   */\n      0x20\n        /* \"#utility.yul\":4860:4863   */\n      dup3\n        /* \"#utility.yul\":4856:4870   */\n      add\n        /* \"#utility.yul\":4841:4870   */\n      swap1\n      pop\n        /* \"#utility.yul\":4803:4876   */\n      swap3\n      swap2\n      pop\n      pop\n      jump\t// out\n        /* \"#utility.yul\":4882:4978   */\n    tag_80:\n      0x00\n        /* \"#utility.yul\":4948:4972   */\n      tag_121\n        /* \"#utility.yul\":4966:4971   */\n      dup3\n        /* \"#utility.yul\":4948:4972   */\n      tag_122\n      jump\t// in\n    tag_121:\n        /* \"#utility.yul\":4937:4972   */\n      swap1\n      pop\n        /* \"#utility.yul\":4927:4978   */\n      swap2\n      swap1\n      pop\n      jump\t// out\n        /* \"#utility.yul\":4984:5110   */\n    tag_122:\n      0x00\n        /* \"#utility.yul\":5061:5103   */\n      0xffffffffffffffffffffffffffffffffffffffff\n        /* \"#utility.yul\":5054:5059   */\n      dup3\n        /* \"#utility.yul\":5050:5104   */\n      and\n        /* \"#utility.yul\":5039:5104   */\n      swap1\n      pop\n        /* \"#utility.yul\":5029:5110   */\n      swap2\n      swap1\n      pop\n      jump\t// out\n        /* \"#utility.yul\":5116:5193   */\n    tag_100:\n      0x00\n        /* \"#utility.yul\":5182:5187   */\n      dup2\n        /* \"#utility.yul\":5171:5187   */\n      swap1\n      pop\n        /* \"#utility.yul\":5161:5193   */\n      swap2\n      swap1\n      pop\n      jump\t// out\n        /* \"#utility.yul\":5199:5353   */\n    tag_68:\n        /* \"#utility.yul\":5283:5289   */\n      dup3\n        /* \"#utility.yul\":5278:5281   */\n      dup2\n        /* \"#utility.yul\":5273:5276   */\n      dup4\n        /* \"#utility.yul\":5260:5290   */\n      calldatacopy\n        /* \"#utility.yul\":5345:5346   */\n      0x00\n        /* \"#utility.yul\":5336:5342   */\n      dup4\n        /* \"#utility.yul\":5331:5334   */\n      dup4\n        /* \"#utility.yul\":5327:5343   */\n      add\n        /* \"#utility.yul\":5320:5347   */\n      mstore\n        /* \"#utility.yul\":5250:5353   */\n      pop\n      pop\n      pop\n      jump\t// out\n        /* \"#utility.yul\":5359:5666   */\n    tag_88:\n        /* \"#utility.yul\":5427:5428   */\n      0x00\n        /* \"#utility.yul\":5437:5550   */\n    tag_127:\n        /* \"#utility.yul\":5451:5457   */\n      dup4\n        /* \"#utility.yul\":5448:5449   */\n      dup2\n        /* \"#utility.yul\":5445:5458   */\n      lt\n        /* \"#utility.yul\":5437:5550   */\n      iszero\n      tag_129\n      jumpi\n        /* \"#utility.yul\":5536:5537   */\n      dup1\n        /* \"#utility.yul\":5531:5534   */\n      dup3\n        /* \"#utility.yul\":5527:5538   */\n      add\n        /* \"#utility.yul\":5521:5539   */\n      mload\n        /* \"#utility.yul\":5517:5518   */\n      dup2\n        /* \"#utility.yul\":5512:5515   */\n      dup5\n        /* \"#utility.yul\":5508:5519   */\n      add\n        /* \"#utility.yul\":5501:5540   */\n      mstore\n        /* \"#utility.yul\":5473:5475   */\n      0x20\n        /* \"#utility.yul\":5470:5471   */\n      dup2\n        /* \"#utility.yul\":5466:5476   */\n      add\n        /* \"#utility.yul\":5461:5476   */\n      swap1\n      pop\n        /* \"#utility.yul\":5437:5550   */\n      jump(tag_127)\n    tag_129:\n        /* \"#utility.yul\":5568:5574   */\n      dup4\n        /* \"#utility.yul\":5565:5566   */\n      dup2\n        /* \"#utility.yul\":5562:5575   */\n      gt\n        /* \"#utility.yul\":5559:5561   */\n      iszero\n      tag_130\n      jumpi\n        /* \"#utility.yul\":5648:5649   */\n      0x00\n        /* \"#utility.yul\":5639:5645   */\n      dup5\n        /* \"#utility.yul\":5634:5637   */\n      dup5\n        /* \"#utility.yul\":5630:5646   */\n      add\n        /* \"#utility.yul\":5623:5650   */\n      mstore\n        /* \"#utility.yul\":5559:5561   */\n    tag_130:\n        /* \"#utility.yul\":5408:5666   */\n      pop\n      pop\n      pop\n      pop\n      jump\t// out\n        /* \"#utility.yul\":5672:5992   */\n    tag_35:\n      0x00\n        /* \"#utility.yul\":5753:5754   */\n      0x02\n        /* \"#utility.yul\":5747:5751   */\n      dup3\n        /* \"#utility.yul\":5743:5755   */\n      div\n        /* \"#utility.yul\":5733:5755   */\n      swap1\n      pop\n        /* \"#utility.yul\":5800:5801   */\n      0x01\n        /* \"#utility.yul\":5794:5798   */\n      dup3\n        /* \"#utility.yul\":5790:5802   */\n      and\n        /* \"#utility.yul\":5821:5839   */\n      dup1\n        /* \"#utility.yul\":5811:5813   */\n      tag_132\n      jumpi\n        /* \"#utility.yul\":5877:5881   */\n      0x7f\n        /* \"#utility.yul\":5869:5875   */\n      dup3\n        /* \"#utility.yul\":5865:5882   */\n      and\n        /* \"#utility.yul\":5855:5882   */\n      swap2\n      pop\n        /* \"#utility.yul\":5811:5813   */\n    tag_132:\n        /* \"#utility.yul\":5939:5941   */\n      0x20\n        /* \"#utility.yul\":5931:5937   */\n      dup3\n        /* \"#utility.yul\":5928:5942   */\n      lt\n        /* \"#utility.yul\":5908:5926   */\n      dup2\n        /* \"#utility.yul\":5905:5943   */\n      eq\n        /* \"#utility.yul\":5902:5904   */\n      iszero\n      tag_133\n      jumpi\n        /* \"#utility.yul\":5958:5976   */\n      tag_134\n      tag_135\n      jump\t// in\n    tag_134:\n        /* \"#utility.yul\":5902:5904   */\n    tag_133:\n        /* \"#utility.yul\":5723:5992   */\n      pop\n      swap2\n      swap1\n      pop\n      jump\t// out\n        /* \"#utility.yul\":5998:6231   */\n    tag_32:\n      0x00\n        /* \"#utility.yul\":6060:6084   */\n      tag_137\n        /* \"#utility.yul\":6078:6083   */\n      dup3\n        /* \"#utility.yul\":6060:6084   */\n      tag_100\n      jump\t// in\n    tag_137:\n        /* \"#utility.yul\":6051:6084   */\n      swap2\n      pop\n        /* \"#utility.yul\":6106:6172   */\n      0xffffffffffffffffffffffffffffffffffffffffffffffffffffffffffffffff\n        /* \"#utility.yul\":6099:6104   */\n      dup3\n        /* \"#utility.yul\":6096:6173   */\n      eq\n        /* \"#utility.yul\":6093:6095   */\n      iszero\n      tag_138\n      jumpi\n        /* \"#utility.yul\":6176:6194   */\n      tag_139\n      tag_140\n      jump\t// in\n    tag_139:\n        /* \"#utility.yul\":6093:6095   */\n    tag_138:\n        /* \"#utility.yul\":6223:6224   */\n      0x01\n        /* \"#utility.yul\":6216:6221   */\n      dup3\n        /* \"#utility.yul\":6212:6225   */\n      add\n        /* \"#utility.yul\":6205:6225   */\n      swap1\n      pop\n        /* \"#utility.yul\":6041:6231   */\n      swap2\n      swap1\n      pop\n      jump\t// out\n        /* \"#utility.yul\":6237:6417   */\n    tag_140:\n        /* \"#utility.yul\":6285:6362   */\n      0x4e487b7100000000000000000000000000000000000000000000000000000000\n        /* \"#utility.yul\":6282:6283   */\n      0x00\n        /* \"#utility.yul\":6275:6363   */\n      mstore\n        /* \"#utility.yul\":6382:6386   */\n      0x11\n        /* \"#utility.yul\":6379:6380   */\n      0x04\n        /* \"#utility.yul\":6372:6387   */\n      mstore\n        /* \"#utility.yul\":6406:6410   */\n      0x24\n        /* \"#utility.yul\":6403:6404   */\n      0x00\n        /* \"#utility.yul\":6396:6411   */\n      revert\n        /* \"#utility.yul\":6423:6603   */\n    tag_135:\n        /* \"#utility.yul\":6471:6548   */\n      0x4e487b7100000000000000000000000000000000000000000000000000000000\n        /* \"#utility.yul\":6468:6469   */\n      0x00\n        /* \"#utility.yul\":6461:6549   */\n      mstore\n        /* \"#utility.yul\":6568:6572   */\n      0x22\n        /* \"#utility.yul\":6565:6566   */\n      0x04\n        /* \"#utility.yul\":6558:6573   */\n      mstore\n        /* \"#utility.yul\":6592:6596   */\n      0x24\n        /* \"#utility.yul\":6589:6590   */\n      0x00\n        /* \"#utility.yul\":6582:6597   */\n      revert\n        /* \"#utility.yul\":6609:6789   */\n    tag_114:\n        /* \"#utility.yul\":6657:6734   */\n      0x4e487b7100000000000000000000000000000000000000000000000000000000\n        /* \"#utility.yul\":6654:6655   */\n      0x00\n        /* \"#utility.yul\":6647:6735   */\n      mstore\n        /* \"#utility.yul\":6754:6758   */\n      0x41\n        /* \"#utility.yul\":6751:6752   */\n      0x04\n        /* \"#utility.yul\":6744:6759   */\n      mstore\n        /* \"#utility.yul\":6778:6782   */\n      0x24\n        /* \"#utility.yul\":6775:6776   */\n      0x00\n        /* \"#utility.yul\":6768:6783   */\n      revert\n        /* \"#utility.yul\":6795:6897   */\n    tag_90:\n      0x00\n        /* \"#utility.yul\":6887:6889   */\n      0x1f\n        /* \"#utility.yul\":6883:6890   */\n      not\n        /* \"#utility.yul\":6878:6880   */\n      0x1f\n        /* \"#utility.yul\":6871:6876   */\n      dup4\n        /* \"#utility.yul\":6867:6881   */\n      add\n        /* \"#utility.yul\":6863:6891   */\n      and\n        /* \"#utility.yul\":6853:6891   */\n      swap1\n      pop\n        /* \"#utility.yul\":6843:6897   */\n      swap2\n      swap1\n      pop\n      jump\t// out\n\n    auxdata: 0xa2646970667358221220e1b3f2f7062df342a512b60eaf3fe99ec816ca704da9ba24fc15153f9d8076cf64736f6c63430008000033\n}\n",
				"bytecode": {
					"linkReferences": {},
					"object": "608060405234801561001057600080fd5b5033600160006101000a81548173ffffffffffffffffffffffffffffffffffffffff021916908373ffffffffffffffffffffffffffffffffffffffff16021790555061091b806100616000396000f3fe608060405234801561001057600080fd5b50600436106100575760003560e01c80630bb8c40f1461005c578063163f41521461007a57806384991e08146100965780638da5cb5b146100b4578063e21f37ce146100d2575b600080fd5b6100646100f0565b6040516100719190610639565b60405180910390f35b610094600480360381019061008f91906104fb565b610116565b005b61009e610336565b6040516100ab91906106b6565b60405180910390f35b6100bc61033c565b6040516100c99190610639565b60405180910390f35b6100da610362565b6040516100e79190610654565b60405180910390f35b600260009054906101000a900473ffffffffffffffffffffffffffffffffffffffff1681565b600160009054906101000a900473ffffffffffffffffffffffffffffffffffffffff1673ffffffffffffffffffffffffffffffffffffffff163373ffffffffffffffffffffffffffffffffffffffff1614156101e15780600390805190602001906101829291906103f0565b50600080815480929190610195906107fe565b91905055506000600260006101000a81548173ffffffffffffffffffffffffffffffffffffffff021916908373ffffffffffffffffffffffffffffffffffffffff160217905550610333565b6000600380546101f0906107cc565b905011610232576040517f08c379a000000000000000000000000000000000000000000000000000000000815260040161022990610696565b60405180910390fd5b600073ffffffffffffffffffffffffffffffffffffffff16600260009054906101000a900473ffffffffffffffffffffffffffffffffffffffff1673ffffffffffffffffffffffffffffffffffffffff16146102c3576040517f08c379a00000000000000000000000000000000000000000000000000000000081526004016102ba90610676565b60405180910390fd5b33600260006101000a81548173ffffffffffffffffffffffffffffffffffffffff021916908373ffffffffffffffffffffffffffffffffffffffff160217905550806003908051906020019061031a9291906103f0565b5060008081548092919061032d906107fe565b91905055505b50565b60005481565b600160009054906101000a900473ffffffffffffffffffffffffffffffffffffffff1681565b6003805461036f906107cc565b80601f016020809104026020016040519081016040528092919081815260200182805461039b906107cc565b80156103e85780601f106103bd576101008083540402835291602001916103e8565b820191906000526020600020905b8154815290600101906020018083116103cb57829003601f168201915b505050505081565b8280546103fc906107cc565b90600052602060002090601f01602090048101928261041e5760008555610465565b82601f1061043757805160ff1916838001178555610465565b82800160010185558215610465579182015b82811115610464578251825591602001919060010190610449565b5b5090506104729190610476565b5090565b5b8082111561048f576000816000905550600101610477565b5090565b60006104a66104a184610702565b6106d1565b9050828152602081018484840111156104be57600080fd5b6104c984828561078a565b509392505050565b600082601f8301126104e257600080fd5b81356104f2848260208601610493565b91505092915050565b60006020828403121561050d57600080fd5b600082013567ffffffffffffffff81111561052757600080fd5b610533848285016104d1565b91505092915050565b6105458161074e565b82525050565b600061055682610732565b610560818561073d565b9350610570818560208601610799565b610579816108d4565b840191505092915050565b600061059160248361073d565b91507f4d6573736167652068617320616c7265616479206265656e207265706c69656460008301527f20746f2e000000000000000000000000000000000000000000000000000000006020830152604082019050919050565b60006105f760178361073d565b91507f4e6f206d65737361676520746f207265706c7920746f2e0000000000000000006000830152602082019050919050565b61063381610780565b82525050565b600060208201905061064e600083018461053c565b92915050565b6000602082019050818103600083015261066e818461054b565b905092915050565b6000602082019050818103600083015261068f81610584565b9050919050565b600060208201905081810360008301526106af816105ea565b9050919050565b60006020820190506106cb600083018461062a565b92915050565b6000604051905081810181811067ffffffffffffffff821117156106f8576106f76108a5565b5b8060405250919050565b600067ffffffffffffffff82111561071d5761071c6108a5565b5b601f19601f8301169050602081019050919050565b600081519050919050565b600082825260208201905092915050565b600061075982610760565b9050919050565b600073ffffffffffffffffffffffffffffffffffffffff82169050919050565b6000819050919050565b82818337600083830152505050565b60005b838110156107b757808201518184015260208101905061079c565b838111156107c6576000848401525b50505050565b600060028204905060018216806107e457607f821691505b602082108114156107f8576107f7610876565b5b50919050565b600061080982610780565b91507fffffffffffffffffffffffffffffffffffffffffffffffffffffffffffffffff82141561083c5761083b610847565b5b600182019050919050565b7f4e487b7100000000000000000000000000000000000000000000000000000000600052601160045260246000fd5b7f4e487b7100000000000000000000000000000000000000000000000000000000600052602260045260246000fd5b7f4e487b7100000000000000000000000000000000000000000000000000000000600052604160045260246000fd5b6000601f19601f830116905091905056fea2646970667358221220e1b3f2f7062df342a512b60eaf3fe99ec816ca704da9ba24fc15153f9d8076cf64736f6c63430008000033",
					"opcodes": "PUSH1 0x80 PUSH1 0x40 MSTORE CALLVALUE DUP1 ISZERO PUSH2 0x10 JUMPI PUSH1 0x0 DUP1 REVERT JUMPDEST POP CALLER PUSH1 0x1 PUSH1 0x0 PUSH2 0x100 EXP DUP2 SLOAD DUP2 PUSH20 0xFFFFFFFFFFFFFFFFFFFFFFFFFFFFFFFFFFFFFFFF MUL NOT AND SWAP1 DUP4 PUSH20 0xFFFFFFFFFFFFFFFFFFFFFFFFFFFFFFFFFFFFFFFF AND MUL OR SWAP1 SSTORE POP PUSH2 0x91B DUP1 PUSH2 0x61 PUSH1 0x0 CODECOPY PUSH1 0x0 RETURN INVALID PUSH1 0x80 PUSH1 0x40 MSTORE CALLVALUE DUP1 ISZERO PUSH2 0x10 JUMPI PUSH1 0x0 DUP1 REVERT JUMPDEST POP PUSH1 0x4 CALLDATASIZE LT PUSH2 0x57 JUMPI PUSH1 0x0 CALLDATALOAD PUSH1 0xE0 SHR DUP1 PUSH4 0xBB8C40F EQ PUSH2 0x5C JUMPI DUP1 PUSH4 0x163F4152 EQ PUSH2 0x7A JUMPI DUP1 PUSH4 0x84991E08 EQ PUSH2 0x96 JUMPI DUP1 PUSH4 0x8DA5CB5B EQ PUSH2 0xB4 JUMPI DUP1 PUSH4 0xE21F37CE EQ PUSH2 0xD2 JUMPI JUMPDEST PUSH1 0x0 DUP1 REVERT JUMPDEST PUSH2 0x64 PUSH2 0xF0 JUMP JUMPDEST PUSH1 0x40 MLOAD PUSH2 0x71 SWAP2 SWAP1 PUSH2 0x639 JUMP JUMPDEST PUSH1 0x40 MLOAD DUP1 SWAP2 SUB SWAP1 RETURN JUMPDEST PUSH2 0x94 PUSH1 0x4 DUP1 CALLDATASIZE SUB DUP2 ADD SWAP1 PUSH2 0x8F SWAP2 SWAP1 PUSH2 0x4FB JUMP JUMPDEST PUSH2 0x116 JUMP JUMPDEST STOP JUMPDEST PUSH2 0x9E PUSH2 0x336 JUMP JUMPDEST PUSH1 0x40 MLOAD PUSH2 0xAB SWAP2 SWAP1 PUSH2 0x6B6 JUMP JUMPDEST PUSH1 0x40 MLOAD DUP1 SWAP2 SUB SWAP1 RETURN JUMPDEST PUSH2 0xBC PUSH2 0x33C JUMP JUMPDEST PUSH1 0x40 MLOAD PUSH2 0xC9 SWAP2 SWAP1 PUSH2 0x639 JUMP JUMPDEST PUSH1 0x40 MLOAD DUP1 SWAP2 SUB SWAP1 RETURN JUMPDEST PUSH2 0xDA PUSH2 0x362 JUMP JUMPDEST PUSH1 0x40 MLOAD PUSH2 0xE7 SWAP2 SWAP1 PUSH2 0x654 JUMP JUMPDEST PUSH1 0x40 MLOAD DUP1 SWAP2 SUB SWAP1 RETURN JUMPDEST PUSH1 0x2 PUSH1 0x0 SWAP1 SLOAD SWAP1 PUSH2 0x100 EXP SWAP1 DIV PUSH20 0xFFFFFFFFFFFFFFFFFFFFFFFFFFFFFFFFFFFFFFFF AND DUP2 JUMP JUMPDEST PUSH1 0x1 PUSH1 0x0 SWAP1 SLOAD SWAP1 PUSH2 0x100 EXP SWAP1 DIV PUSH20 0xFFFFFFFFFFFFFFFFFFFFFFFFFFFFFFFFFFFFFFFF AND PUSH20 0xFFFFFFFFFFFFFFFFFFFFFFFFFFFFFFFFFFFFFFFF AND CALLER PUSH20 0xFFFFFFFFFFFFFFFFFFFFFFFFFFFFFFFFFFFFFFFF AND EQ ISZERO PUSH2 0x1E1 JUMPI DUP1 PUSH1 0x3 SWAP1 DUP1 MLOAD SWAP1 PUSH1 0x20 ADD SWAP1 PUSH2 0x182 SWAP3 SWAP2 SWAP1 PUSH2 0x3F0 JUMP JUMPDEST POP PUSH1 0x0 DUP1 DUP2 SLOAD DUP1 SWAP3 SWAP2 SWAP1 PUSH2 0x195 SWAP1 PUSH2 0x7FE JUMP JUMPDEST SWAP2 SWAP1 POP SSTORE POP PUSH1 0x0 PUSH1 0x2 PUSH1 0x0 PUSH2 0x100 EXP DUP2 SLOAD DUP2 PUSH20 0xFFFFFFFFFFFFFFFFFFFFFFFFFFFFFFFFFFFFFFFF MUL NOT AND SWAP1 DUP4 PUSH20 0xFFFFFFFFFFFFFFFFFFFFFFFFFFFFFFFFFFFFFFFF AND MUL OR SWAP1 SSTORE POP PUSH2 0x333 JUMP JUMPDEST PUSH1 0x0 PUSH1 0x3 DUP1 SLOAD PUSH2 0x1F0 SWAP1 PUSH2 0x7CC JUMP JUMPDEST SWAP1 POP GT PUSH2 0x232 JUMPI PUSH1 0x40 MLOAD PUSH32 0x8C379A000000000000000000000000000000000000000000000000000000000 DUP2 MSTORE PUSH1 0x4 ADD PUSH2 0x229 SWAP1 PUSH2 0x696 JUMP JUMPDEST PUSH1 0x40 MLOAD DUP1 SWAP2 SUB SWAP1 REVERT JUMPDEST PUSH1 0x0 PUSH20 0xFFFFFFFFFFFFFFFFFFFFFFFFFFFFFFFFFFFFFFFF AND PUSH1 0x2 PUSH1 0x0 SWAP1 SLOAD SWAP1 PUSH2 0x100 EXP SWAP1 DIV PUSH20 0xFFFFFFFFFFFFFFFFFFFFFFFFFFFFFFFFFFFFFFFF AND PUSH20 0xFFFFFFFFFFFFFFFFFFFFFFFFFFFFFFFFFFFFFFFF AND EQ PUSH2 0x2C3 JUMPI PUSH1 0x40 MLOAD PUSH32 0x8C379A000000000000000000000000000000000000000000000000000000000 DUP2 MSTORE PUSH1 0x4 ADD PUSH2 0x2BA SWAP1 PUSH2 0x676 JUMP JUMPDEST PUSH1 0x40 MLOAD DUP1 SWAP2 SUB SWAP1 REVERT JUMPDEST CALLER PUSH1 0x2 PUSH1 0x0 PUSH2 0x100 EXP DUP2 SLOAD DUP2 PUSH20 0xFFFFFFFFFFFFFFFFFFFFFFFFFFFFFFFFFFFFFFFF MUL NOT AND SWAP1 DUP4 PUSH20 0xFFFFFFFFFFFFFFFFFFFFFFFFFFFFFFFFFFFFFFFF AND MUL OR SWAP1 SSTORE POP DUP1 PUSH1 0x3 SWAP1 DUP1 MLOAD SWAP1 PUSH1 0x20 ADD SWAP1 PUSH2 0x31A SWAP3 SWAP2 SWAP1 PUSH2 0x3F0 JUMP JUMPDEST POP PUSH1 0x0 DUP1 DUP2 SLOAD DUP1 SWAP3 SWAP2 SWAP1 PUSH2 0x32D SWAP1 PUSH2 0x7FE JUMP JUMPDEST SWAP2 SWAP1 POP SSTORE POP JUMPDEST POP JUMP JUMPDEST PUSH1 0x0 SLOAD DUP2 JUMP JUMPDEST PUSH1 0x1 PUSH1 0x0 SWAP1 SLOAD SWAP1 PUSH2 0x100 EXP SWAP1 DIV PUSH20 0xFFFFFFFFFFFFFFFFFFFFFFFFFFFFFFFFFFFFFFFF AND DUP2 JUMP JUMPDEST PUSH1 0x3 DUP1 SLOAD PUSH2 0x36F SWAP1 PUSH2 0x7CC JUMP JUMPDEST DUP1 PUSH1 0x1F ADD PUSH1 0x20 DUP1 SWAP2 DIV MUL PUSH1 0x20 ADD PUSH1 0x40 MLOAD SWAP1 DUP2 ADD PUSH1 0x40 MSTORE DUP1 SWAP3 SWAP2 SWAP1 DUP2 DUP2 MSTORE PUSH1 0x20 ADD DUP3 DUP1 SLOAD PUSH2 0x39B SWAP1 PUSH2 0x7CC JUMP JUMPDEST DUP1 ISZERO PUSH2 0x3E8 JUMPI DUP1 PUSH1 0x1F LT PUSH2 0x3BD JUMPI PUSH2 0x100 DUP1 DUP4 SLOAD DIV MUL DUP4 MSTORE SWAP2 PUSH1 0x20 ADD SWAP2 PUSH2 0x3E8 JUMP JUMPDEST DUP3 ADD SWAP2 SWAP1 PUSH1 0x0 MSTORE PUSH1 0x20 PUSH1 0x0 KECCAK256 SWAP1 JUMPDEST DUP2 SLOAD DUP2 MSTORE SWAP1 PUSH1 0x1 ADD SWAP1 PUSH1 0x20 ADD DUP1 DUP4 GT PUSH2 0x3CB JUMPI DUP3 SWAP1 SUB PUSH1 0x1F AND DUP3 ADD SWAP2 JUMPDEST POP POP POP POP POP DUP2 JUMP JUMPDEST DUP3 DUP1 SLOAD PUSH2 0x3FC SWAP1 PUSH2 0x7CC JUMP JUMPDEST SWAP1 PUSH1 0x0 MSTORE PUSH1 0x20 PUSH1 0x0 KECCAK256 SWAP1 PUSH1 0x1F ADD PUSH1 0x20 SWAP1 DIV DUP2 ADD SWAP3 DUP3 PUSH2 0x41E JUMPI PUSH1 0x0 DUP6 SSTORE PUSH2 0x465 JUMP JUMPDEST DUP3 PUSH1 0x1F LT PUSH2 0x437 JUMPI DUP1 MLOAD PUSH1 0xFF NOT AND DUP4 DUP1 ADD OR DUP6 SSTORE PUSH2 0x465 JUMP JUMPDEST DUP3 DUP1 ADD PUSH1 0x1 ADD DUP6 SSTORE DUP3 ISZERO PUSH2 0x465 JUMPI SWAP2 DUP3 ADD JUMPDEST DUP3 DUP2 GT ISZERO PUSH2 0x464 JUMPI DUP3 MLOAD DUP3 SSTORE SWAP2 PUSH1 0x20 ADD SWAP2 SWAP1 PUSH1 0x1 ADD SWAP1 PUSH2 0x449 JUMP JUMPDEST JUMPDEST POP SWAP1 POP PUSH2 0x472 SWAP2 SWAP1 PUSH2 0x476 JUMP JUMPDEST POP SWAP1 JUMP JUMPDEST JUMPDEST DUP1 DUP3 GT ISZERO PUSH2 0x48F JUMPI PUSH1 0x0 DUP2 PUSH1 0x0 SWAP1 SSTORE POP PUSH1 0x1 ADD PUSH2 0x477 JUMP JUMPDEST POP SWAP1 JUMP JUMPDEST PUSH1 0x0 PUSH2 0x4A6 PUSH2 0x4A1 DUP5 PUSH2 0x702 JUMP JUMPDEST PUSH2 0x6D1 JUMP JUMPDEST SWAP1 POP DUP3 DUP2 MSTORE PUSH1 0x20 DUP2 ADD DUP5 DUP5 DUP5 ADD GT ISZERO PUSH2 0x4BE JUMPI PUSH1 0x0 DUP1 REVERT JUMPDEST PUSH2 0x4C9 DUP5 DUP3 DUP6 PUSH2 0x78A JUMP JUMPDEST POP SWAP4 SWAP3 POP POP POP JUMP JUMPDEST PUSH1 0x0 DUP3 PUSH1 0x1F DUP4 ADD SLT PUSH2 0x4E2 JUMPI PUSH1 0x0 DUP1 REVERT JUMPDEST DUP2 CALLDATALOAD PUSH2 0x4F2 DUP5 DUP3 PUSH1 0x20 DUP7 ADD PUSH2 0x493 JUMP JUMPDEST SWAP2 POP POP SWAP3 SWAP2 POP POP JUMP JUMPDEST PUSH1 0x0 PUSH1 0x20 DUP3 DUP5 SUB SLT ISZERO PUSH2 0x50D JUMPI PUSH1 0x0 DUP1 REVERT JUMPDEST PUSH1 0x0 DUP3 ADD CALLDATALOAD PUSH8 0xFFFFFFFFFFFFFFFF DUP2 GT ISZERO PUSH2 0x527 JUMPI PUSH1 0x0 DUP1 REVERT JUMPDEST PUSH2 0x533 DUP5 DUP3 DUP6 ADD PUSH2 0x4D1 JUMP JUMPDEST SWAP2 POP POP SWAP3 SWAP2 POP POP JUMP JUMPDEST PUSH2 0x545 DUP2 PUSH2 0x74E JUMP JUMPDEST DUP3 MSTORE POP POP JUMP JUMPDEST PUSH1 0x0 PUSH2 0x556 DUP3 PUSH2 0x732 JUMP JUMPDEST PUSH2 0x560 DUP2 DUP6 PUSH2 0x73D JUMP JUMPDEST SWAP4 POP PUSH2 0x570 DUP2 DUP6 PUSH1 0x20 DUP7 ADD PUSH2 0x799 JUMP JUMPDEST PUSH2 0x579 DUP2 PUSH2 0x8D4 JUMP JUMPDEST DUP5 ADD SWAP2 POP POP SWAP3 SWAP2 POP POP JUMP JUMPDEST PUSH1 0x0 PUSH2 0x591 PUSH1 0x24 DUP4 PUSH2 0x73D JUMP JUMPDEST SWAP2 POP PUSH32 0x4D6573736167652068617320616C7265616479206265656E207265706C696564 PUSH1 0x0 DUP4 ADD MSTORE PUSH32 0x20746F2E00000000000000000000000000000000000000000000000000000000 PUSH1 0x20 DUP4 ADD MSTORE PUSH1 0x40 DUP3 ADD SWAP1 POP SWAP2 SWAP1 POP JUMP JUMPDEST PUSH1 0x0 PUSH2 0x5F7 PUSH1 0x17 DUP4 PUSH2 0x73D JUMP JUMPDEST SWAP2 POP PUSH32 0x4E6F206D65737361676520746F207265706C7920746F2E000000000000000000 PUSH1 0x0 DUP4 ADD MSTORE PUSH1 0x20 DUP3 ADD SWAP1 POP SWAP2 SWAP1 POP JUMP JUMPDEST PUSH2 0x633 DUP2 PUSH2 0x780 JUMP JUMPDEST DUP3 MSTORE POP POP JUMP JUMPDEST PUSH1 0x0 PUSH1 0x20 DUP3 ADD SWAP1 POP PUSH2 0x64E PUSH1 0x0 DUP4 ADD DUP5 PUSH2 0x53C JUMP JUMPDEST SWAP3 SWAP2 POP POP JUMP JUMPDEST PUSH1 0x0 PUSH1 0x20 DUP3 ADD SWAP1 POP DUP2 DUP2 SUB PUSH1 0x0 DUP4 ADD MSTORE PUSH2 0x66E DUP2 DUP5 PUSH2 0x54B JUMP JUMPDEST SWAP1 POP SWAP3 SWAP2 POP POP JUMP JUMPDEST PUSH1 0x0 PUSH1 0x20 DUP3 ADD SWAP1 POP DUP2 DUP2 SUB PUSH1 0x0 DUP4 ADD MSTORE PUSH2 0x68F DUP2 PUSH2 0x584 JUMP JUMPDEST SWAP1 POP SWAP2 SWAP1 POP JUMP JUMPDEST PUSH1 0x0 PUSH1 0x20 DUP3 ADD SWAP1 POP DUP2 DUP2 SUB PUSH1 0x0 DUP4 ADD MSTORE PUSH2 0x6AF DUP2 PUSH2 0x5EA JUMP JUMPDEST SWAP1 POP SWAP2 SWAP1 POP JUMP JUMPDEST PUSH1 0x0 PUSH1 0x20 DUP3 ADD SWAP1 POP PUSH2 0x6CB PUSH1 0x0 DUP4 ADD DUP5 PUSH2 0x62A JUMP JUMPDEST SWAP3 SWAP2 POP POP JUMP JUMPDEST PUSH1 0x0 PUSH1 0x40 MLOAD SWAP1 POP DUP2 DUP2 ADD DUP2 DUP2 LT PUSH8 0xFFFFFFFFFFFFFFFF DUP3 GT OR ISZERO PUSH2 0x6F8 JUMPI PUSH2 0x6F7 PUSH2 0x8A5 JUMP JUMPDEST JUMPDEST DUP1 PUSH1 0x40 MSTORE POP SWAP2 SWAP1 POP JUMP JUMPDEST PUSH1 0x0 PUSH8 0xFFFFFFFFFFFFFFFF DUP3 GT ISZERO PUSH2 0x71D JUMPI PUSH2 0x71C PUSH2 0x8A5 JUMP JUMPDEST JUMPDEST PUSH1 0x1F NOT PUSH1 0x1F DUP4 ADD AND SWAP1 POP PUSH1 0x20 DUP2 ADD SWAP1 POP SWAP2 SWAP1 POP JUMP JUMPDEST PUSH1 0x0 DUP2 MLOAD SWAP1 POP SWAP2 SWAP1 POP JUMP JUMPDEST PUSH1 0x0 DUP3 DUP3 MSTORE PUSH1 0x20 DUP3 ADD SWAP1 POP SWAP3 SWAP2 POP POP JUMP JUMPDEST PUSH1 0x0 PUSH2 0x759 DUP3 PUSH2 0x760 JUMP JUMPDEST SWAP1 POP SWAP2 SWAP1 POP JUMP JUMPDEST PUSH1 0x0 PUSH20 0xFFFFFFFFFFFFFFFFFFFFFFFFFFFFFFFFFFFFFFFF DUP3 AND SWAP1 POP SWAP2 SWAP1 POP JUMP JUMPDEST PUSH1 0x0 DUP2 SWAP1 POP SWAP2 SWAP1 POP JUMP JUMPDEST DUP3 DUP2 DUP4 CALLDATACOPY PUSH1 0x0 DUP4 DUP4 ADD MSTORE POP POP POP JUMP JUMPDEST PUSH1 0x0 JUMPDEST DUP4 DUP2 LT ISZERO PUSH2 0x7B7 JUMPI DUP1 DUP3 ADD MLOAD DUP2 DUP5 ADD MSTORE PUSH1 0x20 DUP2 ADD SWAP1 POP PUSH2 0x79C JUMP JUMPDEST DUP4 DUP2 GT ISZERO PUSH2 0x7C6 JUMPI PUSH1 0x0 DUP5 DUP5 ADD MSTORE JUMPDEST POP POP POP POP JUMP JUMPDEST PUSH1 0x0 PUSH1 0x2 DUP3 DIV SWAP1 POP PUSH1 0x1 DUP3 AND DUP1 PUSH2 0x7E4 JUMPI PUSH1 0x7F DUP3 AND SWAP2 POP JUMPDEST PUSH1 0x20 DUP3 LT DUP2 EQ ISZERO PUSH2 0x7F8 JUMPI PUSH2 0x7F7 PUSH2 0x876 JUMP JUMPDEST JUMPDEST POP SWAP2 SWAP1 POP JUMP JUMPDEST PUSH1 0x0 PUSH2 0x809 DUP3 PUSH2 0x780 JUMP JUMPDEST SWAP2 POP PUSH32 0xFFFFFFFFFFFFFFFFFFFFFFFFFFFFFFFFFFFFFFFFFFFFFFFFFFFFFFFFFFFFFFFF DUP3 EQ ISZERO PUSH2 0x83C JUMPI PUSH2 0x83B PUSH2 0x847 JUMP JUMPDEST JUMPDEST PUSH1 0x1 DUP3 ADD SWAP1 POP SWAP2 SWAP1 POP JUMP JUMPDEST PUSH32 0x4E487B7100000000000000000000000000000000000000000000000000000000 PUSH1 0x0 MSTORE PUSH1 0x11 PUSH1 0x4 MSTORE PUSH1 0x24 PUSH1 0x0 REVERT JUMPDEST PUSH32 0x4E487B7100000000000000000000000000000000000000000000000000000000 PUSH1 0x0 MSTORE PUSH1 0x22 PUSH1 0x4 MSTORE PUSH1 0x24 PUSH1 0x0 REVERT JUMPDEST PUSH32 0x4E487B7100000000000000000000000000000000000000000000000000000000 PUSH1 0x0 MSTORE PUSH1 0x41 PUSH1 0x4 MSTORE PUSH1 0x24 PUSH1 0x0 REVERT JUMPDEST PUSH1 0x0 PUSH1 0x1F NOT PUSH1 0x1F DUP4 ADD AND SWAP1 POP SWAP2 SWAP1 POP JUMP INVALID LOG2 PUSH5 0x6970667358 0x22 SLT KECCAK256 0xE1 0xB3 CALLCODE 0xF7 MOD 0x2D RETURN TIMESTAMP 0xA5 SLT 0xB6 0xE 0xAF EXTCODEHASH 0xE9 SWAP15 0xC8 AND 0xCA PUSH17 0x4DA9BA24FC15153F9D8076CF64736F6C63 NUMBER STOP ADDMOD STOP STOP CALLER "
				},
				"gasEstimates": {
					"creation": {
						"codeDepositCost": "466200",
						"executionCost": "21365",
						"totalCost": "487565"
					},
					"external": {
						"conter()": "1151",
						"message()": "infinite",
						"owner()": "1258",
						"recipt()": "1192",
						"updMessage(string)": "infinite"
					}
				},
				"methodIdentifiers": {
					"conter()": "84991e08",
					"message()": "e21f37ce",
					"owner()": "8da5cb5b",
					"recipt()": "0bb8c40f",
					"updMessage(string)": "163f4152"
				}
			},
			"storageLayout": {
				"storage": [
					{
						"astId": 3,
						"contract": "contract-8847ba4147.sol:MsgBlockchain",
						"label": "conter",
						"offset": 0,
						"slot": "0",
						"type": "t_uint256"
					},
					{
						"astId": 5,
						"contract": "contract-8847ba4147.sol:MsgBlockchain",
						"label": "owner",
						"offset": 0,
						"slot": "1",
						"type": "t_address"
					},
					{
						"astId": 7,
						"contract": "contract-8847ba4147.sol:MsgBlockchain",
						"label": "recipt",
						"offset": 0,
						"slot": "2",
						"type": "t_address"
					},
					{
						"astId": 9,
						"contract": "contract-8847ba4147.sol:MsgBlockchain",
						"label": "message",
						"offset": 0,
						"slot": "3",
						"type": "t_string_storage"
					}
				],
				"types": {
					"t_address": {
						"encoding": "inplace",
						"label": "address",
						"numberOfBytes": "20"
					},
					"t_string_storage": {
						"encoding": "bytes",
						"label": "string",
						"numberOfBytes": "32"
					},
					"t_uint256": {
						"encoding": "inplace",
						"label": "uint256",
						"numberOfBytes": "32"
					}
				}
			},
			"userdoc": {
				"kind": "user",
				"methods": {},
				"version": 1
			}
		}
	}
}